:0300000002008279
:0C008200787FE4F6D8FD75810702005776
:04009200B0A4F9C05D
:04003E007FFA7E00C7
:100042007D73EF1FAA0670011E4A6008AC051DEC05
:0400520060F080F8E2
:010056002287
:04008E0075A08722B0
:10000300E4F9FB75A04712003E75A00712003E09F4
:10001300B903F075A033E4FBEBFF3395E0FE749274
:100023002FF58274003EF583E493F5907FF47E010F
:0A0033001200420BBB04E17590FFC0
:01003D0022A0
:10006F00E4FB75A02B12003E75A02312003E0BBBC4
:02007F0003F08C
:01008100225C
:1000570012008E20A1FA7F0A7E0012004220A1F032
:0800670012000312006F80E893
:00000001FF
