:0A021200C0F9A4B0999282F8809020
:0C020500010800010900010A00010B00C3
:1001CB0075F00A84E5F090021293F5A07F647E002F
:0B01DB00EF1FAC0670011E4C70F622F6
:10016E00E4F590D297E5091201CBE4F590D296E52D
:0F017E000975F00A8493F5A07F647E000201DB0F
:10018D00E4F590D294E50A1201CBE4F590D293E513
:0F019D000A75F00A8493F5A07F647E000201DBEF
:1001AC00E4F590D291E50B1201CBE4F590D290E5F9
:0F01BC000B75F00A8493F5A07F647E000201DBCF
:0F01F600E4F59075902475A0BF7F64FE0201DBD5
:10014900758901D2AFD2A9D28C758C3C758AB0D28F
:10015900A8D288D2AAD28A12016E12018D1201ACDC
:050169001201F680F216
:03000B00020116D9
:10011600C0E00508758C3C758AB0E5086414700467
:100126000509F508E509643C7004050AF509E50AC0
:10013600643C7004050BF50AE50B64187002F50BB8
:03014600D0E032D4
:030003000201E611
:1001E600208002050B208102050A208202050932C1
:030013000200A246
:1000A200C0E0C0D075D000C006C007D3E50B9400F5
:1000B2007480948040047F0180027F002083047E4C
:1000C2000180027E00EF5E6002150BD3E50A940008
:1000D2007480948040047F0180027F002084047E2B
:1000E2000180027E00EF5E6002150AD3E5099400EA
:1000F2007480948040047F0180027F002085047E0A
:100102000180027E00EF5E60021509D007D006D0A2
:04011200D0D0E03237
:03000000020016E5
:0C001600787FE4F6D8FD75810B02005DD8
:10002200020149E493A3F8E493A34003F68001F2AA
:1000320008DFF48029E493A3F85407240CC8C333DF
:10004200C4540F4420C8834004F456800146F6DFAE
:10005200E4800B0102040810204080900205E47E37
:10006200019360BCA3FF543F30E509541FFEE493A3
:10007200A360010ECF54C025E060A840B8E493A36A
:10008200FAE493A3F8E493A3C8C582C8CAC583CA95
:10009200F0A3C8C582C8CAC583CADFE9DEE780BE4D
:0102110000EC
:00000001FF
