:0B01BD0001030206040C0809F9A4B0BD
:0A01B200010B00010A02020800E13F
:10017E00EF3395E0FE74BD2FF58274013EF583E4F6
:0F018E0093F5A0E50A9001C493F580AF09AE0880
:10019D007D73EF1FAA0670011E4A6008AC051DECA9
:0401AD0060F080F886
:0101B100222B
:10012F00E4F50C750D07D2AFD2A8D2AAD288D28A25
:10013F00E50B64017019AF0CEF3395E0FEC3EF943C
:10014F0008EE64809480500712017E050C80E7E56D
:10015F000B64027014AF0DEF3395E0C3648094808D
:0C016F00400712017E150D80EC7580FF2A
:03017B0002012F4F
:03000300020006F2
:0D000600750B00750A027508007509E132DE
:03001300020016D2
:10001600C0E0C0D075D000C002C004C005C006C094
:1000260007209003750B01209103750B02E50A6406
:100036000360047F0180027F002094047E01800219
:100046007E00EF5E60187F0A7E0012019D20940EEE
:10005600746A2509F50974FF3508F508050AE50AE5
:10006600640160047F0180027F002095047E018088
:10007600027E00EF5E60177F0A7E0012019D2095CA
:100086000D74962509F509E43508F508150AD00713
:0D009600D006D005D004D002D0D0D0E0328A
:030000000200A358
:0C00A300787FE4F6D8FD75810D0200EABC
:1000AF0002012FE493A3F8E493A34003F68001F237
:1000BF0008DFF48029E493A3F85407240CC8C33352
:1000CF00C4540F4420C8834004F456800146F6DF21
:1000DF00E4800B01020408102040809001B2E47EFE
:1000EF00019360BCA3FF543F30E509541FFEE49316
:1000FF00A360010ECF54C025E060A840B8E493A3DD
:10010F00FAE493A3F8E493A3C8C582C8CAC583CA07
:10011F00F0A3C8C582C8CAC583CADFE9DEE780BEBF
:0101BC000042
:00000001FF
