:0800160001030206040C0809B5
:1001AA00010800010F00010B00010A00010900010A
:0801BA000C00010D00010E070D
:07018E0093F5907FAF7E00A6
:100195007D7DEF1FAA0670011E4A6008AC051DECA7
:0401A50060F080F88E
:0101A9002233
:10002600D2AFD2ACD2AAD2A8758920758BFD758DB8
:10003600FDD28ED28AD288759850E4F587E50A6497
:100046000170107508318508993099FDC299E4F55B
:100056000AF508E50964017010750C32850C9930B3
:1000660099FDC299E4F509F50CE50F6431702EF59A
:100076000BC3E50B940874809480501BAF0BA80744
:100086007480088002C313D8FCF4F5A07F967E0026
:10009600120195050B80DA75A0FFE4F50FE50FB4A4
:1000A600611AE4F50DC3E50D940874809480500C34
:1000B600E50D90001612018E050D80E9E50F6462CC
:1000C6006003020043750E07AF0EEF3395E0C3647D
:1000D6008094804017EF3395E0FE74162FF58274F6
:1000E600003EF583E412018E150E80DCE50F646395
:0C00F6006003020043F590F50F02004388
:03002300020006D2
:09000600309805C29885990F326B
:0300130002000FD9
:04000F00750A01323B
:0300030002001EDA
:04001E00750901322D
:03000000020102F8
:0C010200787FE4F6D8FD75810F020149FA
:10010E00020026E493A3F8E493A34003F68001F2E1
:10011E0008DFF48029E493A3F85407240CC8C333F2
:10012E00C4540F4420C8834004F456800146F6DFC1
:10013E00E4800B01020408102040809001AAE47EA6
:10014E00019360BCA3FF543F30E509541FFEE493B6
:10015E00A360010ECF54C025E060A840B8E493A37D
:10016E00FAE493A3F8E493A3C8C582C8CAC583CAA8
:10017E00F0A3C8C582C8CAC583CADFE9DEE780BE60
:0101C200003C
:00000001FF
