:0A000600C0F9A4B0999282F880902E
:10016200010900010800010E00010C00010B000151
:050172000A00010D0070
:100178007D7DEF1FAA0670011E4A6008AC051DECC4
:0401880060F080F8AB
:01018C002250
:10002600D2AFD2ACD2AAD2A8758920758BFD758DB8
:10003600FDD28ED28AD288759850E4F587E5096498
:100046000A7002F509E50990000693F590E50B6440
:100056000170107508318508993099FDC299E4F54B
:100066000BF508E50A6401700B850D993099FDC200
:1000760099E4F50AE50E6431702EF50CC3E50C948F
:100086000874809480501BAF0CA807740108800286
:10009600C333D8FCF4F5A07F967E00120178050CD8
:1000A60080DA75A0FFE4F50EE50E6432708F05095F
:0400B600F50E80893A
:03002300020016C2
:09001600309805C29885990E325C
:0300130002001FC9
:04001F00750B01322A
:03000300020146B1
:1001460020B406750A01750D6120B506750A01759C
:0C0156000D6220B606750A01750D6332BB
:030000000200BA41
:0C00BA00787FE4F6D8FD75810E0201018C
:1000C600020026E493A3F8E493A34003F68001F22A
:1000D60008DFF48029E493A3F85407240CC8C3333B
:1000E600C4540F4420C8834004F456800146F6DF0A
:1000F600E4800B0102040810204080900162E47E37
:10010600019360BCA3FF543F30E509541FFEE493FE
:10011600A360010ECF54C025E060A840B8E493A3C5
:10012600FAE493A3F8E493A3C8C582C8CAC583CAF0
:10013600F0A3C8C582C8CAC583CADFE9DEE780BEA8
:010177000087
:00000001FF
