:030000000200E11A
:0C00E100787FE4F6D8FD7581090200CD9F
:0700ED008182848890A0C00D
:0400B4007FC87E0083
:1000B8007D78EF1FAA0670011E4A6008AC051DEC8A
:0400C80060F080F86C
:0100CC002211
:10005700E4F583F582AF827403A807088002C333EF
:10006700D8FCF4F580AF827402A807088002C33376
:10007700D8FCF4F590F5A01200B4A3E58264074517
:030087008370D2B1
:01008A002253
:10000300E4F508F50975803E75907E75A07C7FC880
:10001300FE1200B875803FE4F508F50974ED250973
:10002300F58274003508F583E493F4F5A0F590AFF9
:10003300097403A807088002C333D8FCF4F5B0128F
:1000430000B40509E50970020508C39407E508949F
:030053000040C9A1
:010056002287
:10008B00AB07AF031BEF602075B03F75A03F7590BA
:10009B003F75803F1200B475B0FF75A0FF7590FFE0
:0900AB007580FF1200B480DA2216
:1000CD001200571200037F0312008B7FF47E011282
:0400DD0000B880ECFB
:00000001FF
