:0C000300010800010B00010A00010900C7
:100117007D7DEF1FAA0670011E4A6008AC051DEC25
:0401270060F080F80C
:01012B0022B1
:1000B200D2AFD2ACD2AA758920758BFD758DFDD2D7
:1000C2008ED28A759850E4F587E50964017010753F
:1000D20008318508993099FDC299E4F509F508E5DA
:1000E2000BB431E5E4F50AC3E50A94087480948000
:1000F200501BAF0AA8077480088002C313D8FCF40F
:10010200F5A07F967E00120117050A80DA75A0FF1E
:05011200E4F50B80B4D0
:03002300020016C2
:09001600309805C29885990B325F
:0300130002001FC9
:04001F00750901322C
:03000000020026D5
:0C002600787FE4F6D8FD75810B02006DB8
:100032000200B2E493A3F8E493A34003F68001F232
:1000420008DFF48029E493A3F85407240CC8C333CF
:10005200C4540F4420C8834004F456800146F6DF9E
:10006200E4800B0102040810204080900003E47E2B
:10007200019360BCA3FF543F30E509541FFEE49393
:10008200A360010ECF54C025E060A840B8E493A35A
:10009200FAE493A3F8E493A3C8C582C8CAC583CA85
:1000A200F0A3C8C582C8CAC583CADFE9DEE780BE3D
:01000F0000F0
:00000001FF
